:100000000C945C000C944C010C9425010C94790028
:100010000C9479000C9479000C9479000C9479007C
:100020000C9479000C9479000C9479000C9479006C
:100030000C9479000C9479000C9479000C9479005C
:100040000C94DB000C9479000C9479000C947900EA
:100050000C9479000C9479000C9479000C9479003C
:100060000C9479000C947900000000002400270013
:100070002A0000000000250028002B0004040404CE
:100080000404040402020202020203030303030342
:10009000010204081020408001020408102001021F
:1000A00004081020000000080002010000030407FB
:1000B000000000000000000011241FBECFEFD8E0B8
:1000C000DEBFCDBF11E0A0E0B1E0E6E7F4E002C0A2
:1000D00005900D92A630B107D9F721E0A6E0B1E076
:1000E00001C01D92A831B207E1F70E9473010C9480
:1000F00039020C940000E8EAF0E02491E4E9F0E031
:100100009491E0E8F0E0E491EE23C9F0222339F085
:10011000233001F1A8F4213019F1223029F1F0E067
:10012000EE0FFF1FEE58FF4FA591B4912FB7F89433
:10013000EC91811126C090959E239C932FBF08952A
:100140002730A9F02830C9F0243049F720918000E9
:100150002F7D03C0209180002F7720938000DFCF78
:1001600024B52F7724BDDBCF24B52F7DFBCF209185
:10017000B0002F772093B000D2CF2091B0002F7D18
:10018000F9CF9E2BDACF8091840090918500209149
:10019000080130910901AC01421B530B50930D0132
:1001A00040930C01909309018093080181E08093B2
:1001B0000E01089508951F920F920FB60F92112409
:1001C0002F933F938F939F93AF93BF93809114018D
:1001D00090911501A0911601B09117013091130172
:1001E00023E0230F2D3758F50196A11DB11D209353
:1001F00013018093140190931501A0931601B093FD
:10020000170180910F0190911001A0911101B091FF
:1002100012010196A11DB11D80930F019093100151
:10022000A0931101B0931201BF91AF919F918F9153
:100230003F912F910F900FBE0F901F90189526E8B9
:10024000230F0296A11DB11DD2CF1F920F920FB6A0
:100250000F9211242F933F934F935F936F937F934C
:100260008F939F93AF93BF93EF93FF93E09102011E
:10027000F09103010995FF91EF91BF91AF919F918B
:100280008F917F916F915F914F913F912F910F903F
:100290000FBE0F901F9018951F920F920FB60F92DE
:1002A00011242F933F934F935F936F937F938F937B
:1002B0009F93AF93BF93EF93FF93E0910001F09171
:1002C00001010995FF91EF91BF91AF919F918F919E
:1002D0007F916F915F914F913F912F910F900FBE42
:1002E0000F901F901895789484B5826084BD84B572
:1002F000816084BD85B5826085BD85B5816085BD21
:1003000080916E00816080936E00109281008091D8
:100310008100826080938100809181008160809360
:100320008100809180008160809380008091B10085
:1003300084608093B1008091B00081608093B000B0
:1003400080917A00846080937A0080917A00826044
:1003500080937A0080917A00816080937A00809106
:100360007A00806880937A001092C1008FEF84B980
:1003700087B98BEF8AB915B818B81BB8E4E9F0E073
:100380002491E0E8F0E08491882399F090E0880FD0
:10039000991FFC01E859FF4FA591B491FC01EE585B
:1003A000FF4F859194918FB7F894EC91E22BEC93E9
:1003B0008FBF80E00E947B00F89410928000109222
:1003C000810080918100836080938100109285007C
:1003D0001092840083EC90E09093010180930001DF
:1003E00080916900836080936900E89A7894C0E006
:1003F000D0E080910E018823F1F0F89480910C01F7
:1004000090910D0110920E0178949C012855304175
:1004100021363105A8F480910B018F5F80930B0189
:1004200010920A0190910B0180910401981718F025
:1004300081E00E947B002097E1F20E940000D9CF6A
:10044000805190418834910578F480910A018F5F42
:1004500080930A0110920B0190910A01809104018E
:10046000981748F380E0E5CF10920B0110920A0133
:06047000E2CFF894FFCF7B
:06047600DA00DA000500C7
:00000001FF
