:100000000C945D000C94F5020C94CE020C948500C7
:100010000C9485000C9485000C9485000C9485004C
:100020000C9485000C9485000C9485000C9485003C
:100030000C9485000C9485000C9485000C9485002C
:100040000C9484020C9485000C9442030C941C03C1
:100050000C9485000C9485000C9485000C9485000C
:100060000C9485000C9485000000000024002700FB
:100070002A0000000000250028002B0004040404CE
:100080000404040402020202020203030303030342
:10009000010204081020408001020408102001021F
:1000A00004081020000000080002010000030407FB
:1000B0000000000000000000530411241FBECFEF19
:1000C000D8E0DEBFCDBF11E0A0E0B1E0E8EEFEE099
:1000D00002C005900D92AE36B107D9F722E0AEE628
:1000E000B1E001C01D92AD31B207E1F710E0CDE5FE
:1000F000D0E004C02197FE010E948004CC35D107D6
:10010000C9F70E9474030C9472070C940000E8EA8B
:10011000F0E02491E4E9F0E09491E0E8F0E0E4918B
:10012000EE23C9F0222339F0233001F1A8F4213065
:1001300019F1223029F1F0E0EE0FFF1FEE58FF4FCA
:10014000A591B4912FB7F894EC91811126C09095A8
:100150009E239C932FBF08952730A9F02830C9F023
:10016000243049F7209180002F7D03C0209180002A
:100170002F7720938000DFCF24B52F7724BDDBCFEE
:1001800024B52F7DFBCF2091B0002F772093B000B6
:10019000D2CF2091B0002F7DF9CF9E2BDACF809166
:1001A0008400909185002091700130917101AC0123
:1001B000421B530B5093750140937401909371014E
:1001C0008093700181E08093760108950895AF9245
:1001D000BF92CF92DF92EF92FF920F931F93CF9334
:1001E000DF936C017B018B01040F151FEB015E0196
:1001F000AE18BF08C017D10759F06991D601ED912B
:10020000FC910190F081E02DC6010995892B79F7C9
:10021000C501DF91CF911F910F91FF90EF90DF907B
:10022000CF90BF90AF900895FC01538D448D252F42
:1002300030E0842F90E0821B930B541710F0CF9680
:10024000089501970895FC01918D828D981761F0B2
:10025000A28DAE0FBF2FB11D5D968C91928D9F5FC9
:100260009F73928F90E008958FEF9FEF0895FC01A8
:10027000918D828D981731F0828DE80FF11D858D5B
:1002800090E008958FEF9FEF0895FC01918D228DEE
:10029000892F90E0805C9F4F821B91098F73992773
:1002A000089580E891E00E94450121E0892B09F43E
:1002B00020E0822F089580E090E0892B29F00E94B1
:1002C000510181110C9400000895FC01A48DA80F28
:1002D000B92FB11DA35ABF4F2C91848D90E0019688
:1002E0008F739927848FA689B7892C93A089B189A8
:1002F0008C91837080648C93938D848D981306C049
:100300000288F389E02D80818F7D80830895EF92AC
:10031000FF920F931F93CF93DF93EC0181E0888FBF
:100320009B8D8C8D98131AC0E889F989808185FF8F
:1003300015C09FB7F894EE89FF896083E889F98931
:1003400080818370806480839FBF81E090E0DF9133
:10035000CF911F910F91FF90EF900895F62E0B8D86
:1003600010E00F5F1F4F0F731127E02E8C8D8E1141
:100370000CC00FB607FCFACFE889F989808185FFA8
:10038000F5CFCE010E946501F1CFEB8DEC0FFD2F73
:10039000F11DE35AFF4FF0829FB7F8940B8FEA8963
:1003A000FB8980818062CFCFCF93DF93EC01888D72
:1003B0008823B9F0AA89BB89E889F9898C9185FDE0
:1003C00003C0808186FD0DC00FB607FCF7CF8C916E
:1003D00085FFF2CF808185FFEDCFCE010E946501C0
:1003E000E9CFDF91CF910895CF93DF93FC01019086
:1003F0000020E9F73197AF01481B590BBC0180E899
:1004000091E00E94E700EC0142E050E067E171E01A
:1004100080E891E00E94E7008C0F9D1FDF91CF9153
:1004200008950F931F93CF93DF93CDB7DEB7C456D4
:10043000D1090FB6F894DEBF0FBECDBFF89400917E
:10044000740110917501109276017894C801885555
:10045000904181369105A0F5809173018F5F809363
:1004600073011092720190917301809100019817AD
:10047000D8F081E00E9487001F930F938AE191E0FA
:100480009F938F931F9284E68F938E010F5F1F4F70
:100490001F930F930E948D04C8010E94F4010FB6B0
:1004A000F894DEBF0FBECDBFCC59DF4F0FB6F89426
:1004B000DEBF0FBECDBFDF91CF911F910F91089589
:1004C000C8018051904188349105A8F4809172014F
:1004D0008F5F8093720110927301909172018091ED
:1004E0000001981708F380E00E9487001F930F9384
:1004F0008AE291E0C5CF10927301109272011F93AE
:100500000F9380E491E0BCCF1F920F920FB60F9231
:1005100011242F933F938F939F93AF93BF93809119
:100520007C0190917D01A0917E01B0917F0130917D
:100530007B0123E0230F2D3758F50196A11DB11D36
:1005400020937B0180937C0190937D01A0937E0199
:10055000B0937F018091770190917801A09179010A
:10056000B0917A010196A11DB11D809377019093FE
:100570007801A0937901B0937A01BF91AF919F91D7
:100580008F913F912F910F900FBE0F901F90189554
:1005900026E8230F0296A11DB11DD2CF1F920F9204
:1005A0000FB60F9211242F933F934F935F936F9346
:1005B0007F938F939F93AF93BF93EF93FF93E091BC
:1005C0000301F09104010995FF91EF91BF91AF9163
:1005D0009F918F917F916F915F914F913F912F915B
:1005E0000F900FBE0F901F9018951F920F920FB68D
:1005F0000F9211242F933F934F935F936F937F93A9
:100600008F939F93AF93BF93EF93FF93E09101017B
:10061000F09102010995FF91EF91BF91AF919F91E8
:100620008F917F916F915F914F913F912F910F909B
:100630000FBE0F901F9018951F920F920FB60F923A
:1006400011242F933F934F935F936F937F938F93D7
:100650009F93AF93BF93EF93FF9380E891E00E9445
:100660006501FF91EF91BF91AF919F918F917F9124
:100670006F915F914F913F912F910F900FBE0F900F
:100680001F9018951F920F920FB60F9211242F935F
:100690008F939F93EF93FF93E0919001F0919101DD
:1006A0008081E0919601F091970182FD1BC09081BD
:1006B000809199018F5F8F7320919A01821741F089
:1006C000E0919901F0E0E058FE4F958F80939901F9
:1006D000FF91EF919F918F912F910F900FBE0F90EF
:1006E0001F9018958081F4CFCF93DF93CDB7DEB7FD
:1006F000C456D1090FB6F894DEBF0FBECDBF7894B3
:1007000084B5826084BD84B5816084BD85B5826016
:1007100085BD85B5816085BD80916E0081608093C7
:100720006E00109281008091810082608093810030
:100730008091810081608093810080918000816040
:10074000809380008091B10084608093B10080919B
:10075000B00081608093B00080917A0084608093C3
:100760007A0080917A00826080937A0080917A008A
:10077000816080937A0080917A00806880937A000B
:100780001092C1008FEF84B987B98BEF8AB915B881
:1007900018B81BB8E0919001F091910182E080833C
:1007A000E0918C01F0918D011082E0918E01F09129
:1007B0008F018FEC808310929801E0919401F09169
:1007C000950186E08083E0919201F0919301808110
:1007D00080618083E0919201F09193018081886033
:1007E0008083E0919201F091930180818068808301
:1007F000E0919201F091930180818F7D80836BE580
:1008000071E0CE0101960E948604CE0101960E94FD
:10081000F401E4E9F0E02491E0E8F0E08491882339
:1008200099F090E0880F991FFC01E859FF4FA591BE
:10083000B491FC01EE58FF4F859194918FB7F894D5
:10084000EC91E22BEC938FBF80E00E948700F8943C
:1008500010928000109281008091810083608093CB
:10086000810010928500109284008FEC90E09093AC
:100870000201809301018091690083608093690087
:10088000E89A789400E010E08091760181110E944E
:10089000110201151105C1F30E9451018823A1F332
:1008A0000E940000F1CFE0E8F1E01382128288EEAE
:1008B00093E0A0E0B0E084839583A683B78389E0CA
:1008C00091E09183808385EC90E09587848784EC28
:1008D00090E09787868780EC90E0918B808B81EC0D
:1008E00090E0938B828B82EC90E0958B848B86ECEE
:1008F00090E0978B868B118E128E138E148E089536
:10090000EE0FFF1F0590F491E02D0994FB01DC012F
:1009100001900D920020E1F70895AEE0B0E0E3E928
:10092000F4E00C9449070D891E898F89988D26E083
:100930002C831A83098397FF02C080E090E8019717
:100940009E838D83AE01455E5F4F698D7A8DCE01AA
:1009500001960E94BD044D815E8157FD0AC02F8122
:100960003885421753070CF49A01020F131FF80140
:1009700010822E96E4E00C946507ABE0B0E0E3EC67
:10098000F4E00C943B077C013B018A01FC011782D7
:100990001682838181FFC8C1CE0101965C01F701F7
:1009A0009381F30193FD859193FF81913F0188230A
:1009B00009F453C1853239F493FD859193FF8191F8
:1009C0003F01853229F4B70190E00E94AD06E7CFE0
:1009D000912C212C312CFFE1F31538F08B3211F1E1
:1009E00090F4803209F1833229F137FC3CC020EDCC
:1009F000280F2A3050F536FE20C08AE0989E200D40
:100A00001124922E06C08D3291F0803371F76894D4
:100A100030F8F30193FD859193FF81913F0181119E
:100A2000DACF21C0689431F8689432F8F2CF689434
:100A300033F8EFCF689434F8ECCFEAE02E9E200D27
:100A40001124222E689435F8E4CF8E3229F436FC36
:100A500004C1689436F8DDCF8C3619F4689437F801
:100A6000D8CF8836B1F2982F9F7D95549330E0F01F
:100A70008336A1F18337C1F1833509F063C02801C2
:100A8000F2E04F0E511CF801C080D180692D70E05A
:100A900036FC02C06FEF7FEFC6010E9497064C0143
:100AA000689437F882010AC00C5F1F4FFFE3F98397
:100AB00088248394912C6501E89437F833FE2DC087
:100AC000522C8114910471F5552009F468CFB701B7
:100AD00080E290E00E94AD065A94F6CFF801808142
:100AE00089830E5F1F4FE4CF2801F2E04F0E511CA7
:100AF000F801C080D180692D70E036FC02C06FEF34
:100B00007FEFC6010E94A2064C018201D5CFB7013A
:100B100080E290E00E94AD062A942814190409F09E
:100B2000B0F7CECFF60137FC859137FE81916F018A
:100B3000B70190E00E94AD0651105A94F1E08F1A6F
:100B40009108BFCF843619F0893609F077C0F801D3
:100B500037FE6BC060817181828193810C5F1F4F72
:100B6000F32DFF763F2E97FF09C0909580957095E5
:100B700061957F4F8F4F9F4F689437F82AE030E0A0
:100B8000A5010E94DD06C82ECA188C2C432C36FE07
:100B90000CC0E89440F8C91440F434FE05C032FC9F
:100BA00003C0F32DFE7E4F2E892C44FE95C0FE011E
:100BB000EC0DF11D8081803309F087C0242D297E42
:100BC000422E842D8870582E43FC95C040FE8FC065
:100BD0009C2C821418F42C0C922C981844FE91C072
:100BE000B70180E390E00E94AD0642FE09C088E7AD
:100BF00090E041FE02C088E590E0B7010E94AD069A
:100C0000C91408F48AC0CA94D12C9FEFC91AD90A12
:100C1000CA0CDB1CF60182916F01B70190E00E94C3
:100C2000AD06AC14BD04B1F74FCF60817181072EC2
:100C3000000C880B990B0E5F1F4F92CFD32CE894BA
:100C4000D4F82AE030E0853739F1232D297FD22EE0
:100C50008F3601F148F48835A9F0F7018681978134
:100C60002B96E2E10C945707803749F08837A9F7B3
:100C7000D4FE02C06894D2F820E130E00DC0689440
:100C8000D4F8F6CF34FE03C0822F8660D82E20E140
:100C900032E002C028E030E0F801D7FE0FC06081EA
:100CA0007181828193810C5F1F4FA5010E94DD0637
:100CB000C82ECA183D2CE89437F867CF608171813F
:100CC00090E080E00E5F1F4FF0CF42FC02C08394A3
:100CD00078CF8394839475CF842D867809F471CF6F
:100CE000F6CFB70180E290E00E94AD0683948214B3
:100CF000C0F3512C73CF522C5818821408F46ECFC5
:100D0000F8CF842D867809F47BCF8BE241FE80E218
:100D100047FC8DE2B70190E071CFB70180E390E02E
:100D20000E94AD069A946CCF8FEF9FEF99CFFC0194
:100D30000590615070400110D8F7809590958E0F06
:100D40009F1F0895FC016150704001900110D8F779
:100D5000809590958E0F9F1F08950F931F93CF93AB
:100D6000DF93182F092FEB018B8181FD09C01FEF45
:100D70000FEF812F902FDF91CF911F910F91089549
:100D800082FF14C02E813F818C819D8128173907F5
:100D90003CF4E881F981CF0101969983888310831F
:100DA0008E819F8101969F838E83E3CFE885F985AD
:100DB000812F0995892BA1F3DACFFA01AA272830D0
:100DC00051F1203181F1E8946F936E7F6E5F7F4F18
:100DD0008F4F9F4FAF4FB1E03ED0B4E03CD0670F94
:100DE000781F891F9A1FA11D680F791F8A1F911DE7
:100DF000A11D6A0F711D811D911DA11D20D009F437
:100E000068943F912AE0269F11243019305D319378
:100E1000DEF6CF010895462F4770405D4193B3E061
:100E20000FD0C9F7F6CF462F4F70405D4A3318F008
:100E3000495D31FD4052419302D0A9F7EACFB4E0B9
:100E4000A6959795879577956795BA95C9F7009771
:100E50006105710508959B01AC010A2E0694579512
:100E6000479537952795BA95C9F7620F731F841F69
:100E7000951FA01D08952F923F924F925F926F92FF
:100E80007F928F929F92AF92BF92CF92DF92EF921A
:100E9000FF920F931F93CF93DF93CDB7DEB7CA1B9B
:100EA000DB0B0FB6F894DEBF0FBECDBF09942A88C6
:100EB000398848885F846E847D848C849B84AA846E
:100EC000B984C884DF80EE80FD800C811B81AA81FB
:100ED000B981CE0FD11D0FB6F894DEBF0FBECDBFC6
:080EE000ED010895F894FFCF25
:100EE80005E600E600000000008701E7001401D4D1
:100EF800014501230137010D0A003E20496E766540
:100F080072736F722028256429003E20526564653B
:100F180020456CC3A974726963612028256429007F
:100F2800234552524F52203E204E4F5420444554A0
:100F3800454354454420282564290054696D657249
:0E0F48003120737461727465642E2E2E0000C9
:00000001FF
